{
  "contractName": "Reward",
  "abi": [
    {
      "inputs": [],
      "stateMutability": "nonpayable",
      "type": "constructor"
    },
    {
      "inputs": [],
      "name": "name",
      "outputs": [
        {
          "internalType": "string",
          "name": "",
          "type": "string"
        }
      ],
      "stateMutability": "view",
      "type": "function",
      "constant": true
    },
    {
      "inputs": [],
      "name": "symbol",
      "outputs": [
        {
          "internalType": "string",
          "name": "",
          "type": "string"
        }
      ],
      "stateMutability": "view",
      "type": "function",
      "constant": true
    },
    {
      "inputs": [
        {
          "internalType": "address",
          "name": "account",
          "type": "address"
        }
      ],
      "name": "balanceOf",
      "outputs": [
        {
          "internalType": "uint256",
          "name": "",
          "type": "uint256"
        }
      ],
      "stateMutability": "view",
      "type": "function",
      "constant": true
    },
    {
      "inputs": [
        {
          "internalType": "address",
          "name": "account",
          "type": "address"
        },
        {
          "internalType": "uint256",
          "name": "amount",
          "type": "uint256"
        }
      ],
      "name": "addBalance",
      "outputs": [],
      "stateMutability": "nonpayable",
      "type": "function"
    }
  ],
  "bytecode": "0x60806040526040518060400160405280600381526020017f464d540000000000000000000000000000000000000000000000000000000000815250600090816200004a919062000361565b506040518060400160405280600981526020017f46656465726174656400000000000000000000000000000000000000000000008152506001908162000091919062000361565b503480156200009f57600080fd5b5033600260006101000a81548173ffffffffffffffffffffffffffffffffffffffff021916908373ffffffffffffffffffffffffffffffffffffffff16021790555062000448565b600081519050919050565b7f4e487b7100000000000000000000000000000000000000000000000000000000600052604160045260246000fd5b7f4e487b7100000000000000000000000000000000000000000000000000000000600052602260045260246000fd5b600060028204905060018216806200016957607f821691505b6020821081036200017f576200017e62000121565b5b50919050565b60008190508160005260206000209050919050565b60006020601f8301049050919050565b600082821b905092915050565b600060088302620001e97fffffffffffffffffffffffffffffffffffffffffffffffffffffffffffffffff82620001aa565b620001f58683620001aa565b95508019841693508086168417925050509392505050565b6000819050919050565b6000819050919050565b6000620002426200023c62000236846200020d565b62000217565b6200020d565b9050919050565b6000819050919050565b6200025e8362000221565b620002766200026d8262000249565b848454620001b7565b825550505050565b600090565b6200028d6200027e565b6200029a81848462000253565b505050565b5b81811015620002c257620002b660008262000283565b600181019050620002a0565b5050565b601f8211156200031157620002db8162000185565b620002e6846200019a565b81016020851015620002f6578190505b6200030e62000305856200019a565b8301826200029f565b50505b505050565b600082821c905092915050565b6000620003366000198460080262000316565b1980831691505092915050565b600062000351838362000323565b9150826002028217905092915050565b6200036c82620000e7565b67ffffffffffffffff811115620003885762000387620000f2565b5b62000394825462000150565b620003a1828285620002c6565b600060209050601f831160018114620003d95760008415620003c4578287015190505b620003d0858262000343565b86555062000440565b601f198416620003e98662000185565b60005b828110156200041357848901518255600182019150602085019450602081019050620003ec565b868310156200043357848901516200042f601f89168262000323565b8355505b6001600288020188555050505b505050505050565b61057b80620004586000396000f3fe608060405234801561001057600080fd5b506004361061004c5760003560e01c806306fdde031461005157806321e5383a1461006f57806370a082311461008b57806395d89b41146100bb575b600080fd5b6100596100d9565b6040516100669190610330565b60405180910390f35b610089600480360381019061008491906103eb565b61016b565b005b6100a560048036038101906100a0919061042b565b6101c5565b6040516100b29190610467565b60405180910390f35b6100c361020e565b6040516100d09190610330565b60405180910390f35b6060600180546100e8906104b1565b80601f0160208091040260200160405190810160405280929190818152602001828054610114906104b1565b80156101615780601f1061013657610100808354040283529160200191610161565b820191906000526020600020905b81548152906001019060200180831161014457829003601f168201915b5050505050905090565b80600460008473ffffffffffffffffffffffffffffffffffffffff1673ffffffffffffffffffffffffffffffffffffffff16815260200190815260200160002060008282546101ba9190610511565b925050819055505050565b6000600460008373ffffffffffffffffffffffffffffffffffffffff1673ffffffffffffffffffffffffffffffffffffffff168152602001908152602001600020549050919050565b60606000805461021d906104b1565b80601f0160208091040260200160405190810160405280929190818152602001828054610249906104b1565b80156102965780601f1061026b57610100808354040283529160200191610296565b820191906000526020600020905b81548152906001019060200180831161027957829003601f168201915b5050505050905090565b600081519050919050565b600082825260208201905092915050565b60005b838110156102da5780820151818401526020810190506102bf565b60008484015250505050565b6000601f19601f8301169050919050565b6000610302826102a0565b61030c81856102ab565b935061031c8185602086016102bc565b610325816102e6565b840191505092915050565b6000602082019050818103600083015261034a81846102f7565b905092915050565b600080fd5b600073ffffffffffffffffffffffffffffffffffffffff82169050919050565b600061038282610357565b9050919050565b61039281610377565b811461039d57600080fd5b50565b6000813590506103af81610389565b92915050565b6000819050919050565b6103c8816103b5565b81146103d357600080fd5b50565b6000813590506103e5816103bf565b92915050565b6000806040838503121561040257610401610352565b5b6000610410858286016103a0565b9250506020610421858286016103d6565b9150509250929050565b60006020828403121561044157610440610352565b5b600061044f848285016103a0565b91505092915050565b610461816103b5565b82525050565b600060208201905061047c6000830184610458565b92915050565b7f4e487b7100000000000000000000000000000000000000000000000000000000600052602260045260246000fd5b600060028204905060018216806104c957607f821691505b6020821081036104dc576104db610482565b5b50919050565b7f4e487b7100000000000000000000000000000000000000000000000000000000600052601160045260246000fd5b600061051c826103b5565b9150610527836103b5565b925082820190508082111561053f5761053e6104e2565b5b9291505056fea2646970667358221220e5f724b5e65ed5fdd2f43f528e9943f38d8a0ad9d13696f30b50297f2142e7cf64736f6c63430008110033",
  "immutableReferences": {},
  "source": "// SPDX-License-Identifier: MIT\r\npragma solidity >=0.4.22 <0.9.0;\r\n\r\ncontract Reward {\r\n    string private _symbol = \"FMT\";\r\n    string private _name = \"Federated\";\r\n\r\n    address private _owner;\r\n    uint256 private _totalSupply;\r\n    mapping(address => uint256) private _balances;\r\n\r\n    struct User {\r\n        address userAddress;\r\n        uint256 balance;\r\n    }\r\n\r\n    constructor() {\r\n        _owner = msg.sender;\r\n    }\r\n\r\n    function name() public view returns (string memory) {\r\n        return _name;\r\n    }\r\n\r\n    function symbol() public view returns (string memory) {\r\n        return _symbol;\r\n    }\r\n\r\n    //Get balance of an address\r\n    function balanceOf(address account) public view returns (uint256) {\r\n        return _balances[account];\r\n    }\r\n\r\n    //add balance to an address\r\n    function addBalance(address account, uint256 amount) public {\r\n        _balances[account] += amount;\r\n    }\r\n}\r\n",
  "sourcePath": "D:\\Course\\KhoaLuan\\MalwareData\\Solidity\\contracts\\Reward.sol",
  "compiler": {
    "name": "solc",
    "version": "0.8.17+commit.8df45f5f.Emscripten.clang"
  },
  "schemaVersion": "3.4.16",
  "updatedAt": "2024-02-26T17:12:28.101Z",
  "networkType": "ethereum",
  "devdoc": {
    "kind": "dev",
    "methods": {},
    "version": 1
  },
  "userdoc": {
    "kind": "user",
    "methods": {},
    "version": 1
  }
}